S01700004763634170706C69636174696F6E342E7372656358
S11300000C9419010C9436010C9436010C943601AD
S11300100C9436010C9436010C9436010C94360180
S11300200C9436010C9436010C9436010C94CB0DCF
S11300300C9436010C9436010C9436010C94360160
S11300400C9436010C9436010C9436010C94360150
S11300500C9436010C9436010C9436010C94360140
S11300600C9436010C94360113030F031A030F0387
S113007021030F030F0328032F030F0336033D034C
S1130080084AD73B3BCE016E84BCBFFDC12F3D6CFB
S113009074319ABD56833DDA3D00C77F11BED9E461
S11300A0BB4C3E916BAAAABE000000803F0763428E
S11300B036B79BD8A71A39685618AEBAAB558C1DFB
S11300C03CB7CC5763BD6DEDFD753EF6177231BF7D
S11300D0000000803F08000000BE922449123EAB9D
S11300E0AAAA2ABECDCCCC4C3E00000080BEABAA4E
S11300F0AAAA3E00000000BF000000803F000000EC
S11301000000084178D3BB4387D1133D190E3CC38B
S1130110BD4282AD2B3E68EC8276BED98FE1A93E0A
S11301204C80EFFFBE01C4FF7F3F000000000000D1
S11301306E616E00696E660000407A10F35A00A08A
S1130140724E18090010A5D4E80000E8764817009C
S113015000E40B54020000CA9A3B000000E1F505DC
S1130160000080969800000040420F000000A08626
S113017001000000102700000000E8030000000058
S11301806400000000000A000000000001000000FC
S113019000002C76D888DC674F0823DFC1DFAE5916
S11301A0E1B1B796E5E3E453C63AE651997696E8A9
S11301B0E6C28426EB898C9B62ED407C6FFCEFBC2D
S11301C09C9F40F2BAA56FA5F490055A2AF75C9358
S11301D06B6CF9676DC11BFCE0E40D47FEF520E68E
S11301E0B500D0ED902E0300943577050080841E71
S11301F0080000204E0A000000C80C333333330FCC
S1130200986E12831141EF8D2114893BE65516CF68
S1130210FEE6DB18D1844B381BF77C1D901DA4BB74
S1130220E424203284725E228100C9F124ECA1E529
S11302303D2711241FBECFEFD8E0DEBFCDBF11E0B4
S1130240A0E0B1E0EEE0F2E302C005900D92A63228
S1130250B107D9F721E0A6E2B1E001C01D92A933AC
S1130260B207E1F70E9498020C9405190C9400005F
S113027017B818B89FEF90937E00883048F5ECE7E4
S1130280F0E0108290819064908390819F7D9083B0
S11302909081907F90839081892B8083EAE7F0E0BE
S11302A08081806880838081826080838081806493
S11302B08083808184FFFDCFEAE7F0E08081806164
S11302C08083609178007091790080E090E00895D7
S11302D061E070E080E090E008958F929F92AF9289
S11302E0BF92CF92DF92EF92FF924B015C016901C2
S11302F07A010E94C8118823ECF0A7019601C50178
S1130300B4010E94920F9B01AC0160E070E080E0B8
S113031091E40E94061020EE3EE245E652E40E947B
S1130320D3119B01AC0160E070E084E393E40E948C
S1130330920F14C0A5019401C701B6010E94920F47
S11303409B01AC0160E070E080E091E40E94061043
S113035020EE3EE245E652E40E94D311FF90EF9076
S1130360DF90CF90BF90AF909F908F9008954F9261
S11303705F926F927F928F929F92AF92BF92CF9231
S1130380DF92EF92FF92CF93DF9310922A011092A3
S11303902B0110922C0110922D0110922601109223
S11303A027011092280110922901C2E3D0E080E0D5
S11303B00E9438016B017C0181E00E9438012B010D
S11303C03C01C701B6010E94F11020E030E040EA90
S11303D050E40E94D31120E030E040E85AE30E9448
S11303E0D3112AEC33EC4AE95FEB0E9436124B013D
S11303F05C01C301B2010E94F11020E030E040EA48
S113040050E40E94D31120E030E040E85AE30E9417
S1130410D3112AEC33EC4AE95FEB0E9436126B01EC
S11304207C012AE534E644ED51E4C501B4010E949F
S1130430D3119B01AC0160912A0170912B01809131
S11304402C0190912D010E94930F60932A017093C7
S11304502B0180932C0190932D012AE534E644ED81
S113046051E4C701B6010E94D3119B01AC01609114
S113047026017091270180912801909129010E9401
S1130480930F609326017093270180932801909322
S113049029012197209709F08ACF20E030E048E431
S11304A052E460912A0170912B0180912C0190916A
S11304B02D010E945D106B017C0160932A017093F1
S11304C02B0180932C0190932D0120E030E048E42F
S11304D052E4609126017091270180912801909146
S11304E029010E945D109B01AC0160932601709369
S11304F027018093280190932901C701B6010E9426
S11305006D01DF91CF91FF90EF90DF90CF90BF907E
S1130510AF909F908F907F906F905F904F900895D1
S11305200E94BD0D0E94F00D0E94490E789408951A
S11305300E94900268EB7BE080E090E00E94960DC0
S11305400E94140468EE73E080E090E00E94960D2F
S11305500E94B90EC82F0E94BE0ED82FCE3F11F4B0
S11305600E94F80E6D2F8C2F0E94C10E0E94B90EAE
S1130570EFCF8FEF8093B80084EA8093BC00ECEB5C
S1130580F0E080818823ECF70E94BD0D8091B900D2
S113059008958093BB0084E88093BC00ECEBF0E00A
S11305A080818823ECF765E070E080E090E00E94B1
S11305B0780DE9EBF0E08081887F8831E1F765E030
S11305C070E080E090E00E94780D08958093BB0075
S11305D084E88093BC00ECEBF0E080818823ECF7A6
S11305E065E070E080E090E00E94780DE9EBF0E0D7
S11305F08081887F8832E1F765E070E080E090E0F8
S11306000E94780D0895482F862F50E0FA01329702
S1130610EC30F10520F4EC5CFF4F0C940C1790E0E7
S1130620A0E0B0E030C090E04996AA2797FDA095DD
S1130630BA2F29C090E00A97AA2797FDA095BA2F50
S113064022C090E00A96AA2797FDA095BA2F1BC056
S113065090E00797AA2797FDA095BA2F14C090E0C1
S11306600A96AA2797FDA095BA2F0DC090E00A9686
S1130670AA2797FDA095BA2F06C090E00A97AA274B
S113068097FDA095BA2FBB231CF480E090E0DC0119
S1130690853B9105A105B10524F084EB90E0A0E031
S11306A0B0E00895FF920F931F93CF93DF93082F29
S11306B0162F653608F03FC0809338010E94B902B6
S11306C0802F0E94C90280E00E94E60281E30E941A
S11306D0E602CCEBD0E00F2EF4E9FF2EF02DF882E9
S11306E00E94B902802F0E94C9028EEF0E94E60286
S11306F0212F30E040E050E067ED77E180E090E0CA
S11307000E94ED16CA01B9010E94F3100E94C5109F
S11307108FEF860F0E94E602F8820E94B902802FB2
S11307200E94C90280E00E94E60281E20E94E60281
S1130730F88280E001C08FEFDF91CF911F910F917C
S1130740FF900895CF92DF92EF92FF92CF93C82F3C
S11307506A017B01813108F05CC020E030E044E3B1
S113076053E4C701B6010E94C81188230CF053C09A
S113077020E030E040E85FE3C701B6010E94591071
S113078088230CF44AC0C701B6010E94C5108C2FFF
S11307900E940303682F70E080E090E00E94F11053
S11307A020E030E044E353E40E945D1020E030E0B8
S11307B041EE53E40E94D31120E030E046E153E4DB
S11307C00E94930F0E94C510E62EF72E0E94B902D4
S11307D0809138010E94C9028C2F880F880F8A5F8C
S11307E00E94E60280E00E94E60280E00E94E602A7
S11307F08E2D0E94E6028F2D0E94E60265E070E0D5
S113080080E090E00E94780D84E98093BC0080E051
S113081005C08FEF03C08FEF01C08FEFCF91FF9022
S1130820EF90DF90CF90089581E0809300016CE316
S113083080E80E94520340E050E060EA70E480E007
S11308400E94A20340E050E060EF72E481E00E9465
S1130850A20340E050E064EB72E482E00E94A20351
S11308606AEF70E080E090E00E94960D40E050E076
S113087060EA70E484E00E94A20340E050E060EF8C
S113088072E485E00E94A20340E050E064EB72E46D
S113089086E00E94A2036AEF70E080E090E00E948C
S11308A0960D40E050E060EA70E488E00E94A20304
S11308B040E050E060EF72E489E00E94A20340E06F
S11308C050E064EB72E48AE00E94A2036AEF70E0F5
S11308D080E090E00E94960D40E050E060EA70E411
S11308E08CE00E94A20340E050E060EF72E48DE0EF
S11308F00E94A20340E050E064EB72E48EE00E94A8
S1130900A2036AEF70E080E090E00E94960D40E060
S113091050E060EA71E480E00E94A20340E050E00D
S113092060E772E481E00E94A20340E050E064EBDF
S113093072E482E00E94A2036AEF70E080E090E03B
S11309400E94960D40E050E060EA71E484E00E9469
S1130950A20340E050E060E772E485E00E94A20355
S113096040E050E064EB72E486E00E94A2036AEF88
S113097070E080E090E00E94960D40E050E060EA74
S113098071E488E00E94A20340E050E060E772E472
S113099089E00E94A20340E050E064EB72E48AE044
S11309A00E94A2036AEF70E080E090E00E94960D3E
S11309B040E050E060EA71E48CE00E94A20340E071
S11309C050E060E772E48DE00E94A20340E050E052
S11309D064EB72E48EE00E94A2036AEF70E080E0B0
S11309E090E00E94960D40E050E060E272E480E006
S11309F00E94A20340E050E060E272E481E00E94C1
S1130A00A20340E050E064EB72E482E00E94A2039F
S1130A106AEF70E080E090E00E94960D40E050E0C4
S1130A2060E272E484E00E94A20340E050E060E2ED
S1130A3072E485E00E94A20340E050E064EB72E4BB
S1130A4086E00E94A2036AEF70E080E090E00E94DA
S1130A50960D40E050E060E272E488E00E94A20358
S1130A6040E050E060E272E489E00E94A20340E0CA
S1130A7050E064EB72E48AE00E94A2036AEF70E043
S1130A8080E090E00E94960D40E050E060E272E465
S1130A908CE00E94A20340E050E060E272E48DE04A
S1130AA00E94A20340E050E064EB72E48EE00E94F6
S1130AB0A2036AEF70E080E090E00E94960D40E0AF
S1130AC050E060E272E480E00E94A20340E050E063
S1130AD060E272E481E00E94A20340E050E062E040
S1130AE073E482E00E94A2036AEF70E080E090E089
S1130AF00E94960D40E050E060E272E484E00E94BF
S1130B00A20340E050E060E272E485E00E94A203A8
S1130B1040E050E060E272E486E00E94A2036AEFE3
S1130B2070E080E090E00E94960D089580910001AD
S1130B30882309F4C9C040E050E060E272E480E038
S1130B400E94A20340E050E060EF72E481E00E9462
S1130B50A20340E050E060E272E482E00E94A2035B
S1130B606AEF70E080E090E00E94960D40E050E073
S1130B7060E272E480E00E94A20340E050E060E2A0
S1130B8072E481E00E94A20340E050E060E272E47B
S1130B9082E00E94A2036AEF70E080E090E00E948D
S1130BA0960D40E050E060E272E480E00E94A2030F
S1130BB040E050E060E272E481E00E94A20340E081
S1130BC050E064EB72E482E00E94A20340E050E053
S1130BD060E272E484E00E94A20340E050E060E23C
S1130BE072E485E00E94A20340E050E064EB72E40A
S1130BF086E00E94A20340E050E060E272E488E0F4
S1130C000E94A20340E050E060E272E489E00E94A6
S1130C10A20340E050E060E272E48AE00E94A20392
S1130C2040E050E060E272E48CE00E94A20340E005
S1130C3050E060E272E48DE00E94A20340E050E0E4
S1130C4060E272E48EE00E94A2036AEF70E080E04A
S1130C5090E00E94960D40E050E060E272E488E08B
S1130C600E94A20340E050E060EF72E489E00E9439
S1130C70A20340E050E060EF72E48AE00E94A20325
S1130C806AEF70E080E090E00E94960D40E050E052
S1130C9060E272E488E00E94A20340E050E060E277
S1130CA072E489E00E94A20340E050E060EF72E445
S1130CB08AE00E94A2036AEF70E080E090E00E9464
S1130CC0960D10920001089540E050E060E272E455
S1130CD08CE00E94A20340E050E060EF72E48DE0FB
S1130CE00E94A20340E050E062E073E48EE00E94C0
S1130CF0A2036AEF70E080E090E00E94960D40E06D
S1130D0050E060E272E48CE00E94A20340E050E014
S1130D1060E272E48DE00E94A20340E050E062E0F1
S1130D2073E48EE00E94A2036AEF70E080E090E03A
S1130D300E94960D40E050E060E272E480E00E9480
S1130D40A20340E050E060E272E481E00E94A2036A
S1130D5040E050E062E073E482E00E94A20340E0DD
S1130D6050E060E272E484E00E94A20340E050E0BC
S1130D7060E272E485E00E94A20340E050E062E099
S1130D8073E486E00E94A20340E050E060E272E473
S1130D9088E00E94A20340E050E060E272E489E04F
S1130DA00E94A20340E050E064EB72E48AE00E94F7
S1130DB0A20340E050E060E272E48CE00E94A203EF
S1130DC040E050E060E272E48DE00E94A20340E063
S1130DD050E064EB72E48EE00E94A2036AEF70E0DC
S1130DE080E090E00E94960D40E050E060E272E402
S1130DF084E00E94A20340E050E060EF72E485E0EA
S1130E000E94A20340E050E060E272E486E00E94A7
S1130E10A2036AEF70E080E090E00E94960D40E04B
S1130E2050E060E272E484E00E94A20340E050E0FB
S1130E3060E272E485E00E94A20340E050E060E2D8
S1130E4072E486E00E94A2036AEF70E080E090E022
S1130E500E94960D81E08093000108958091000125
S1130E60882309F4C9C040E050E060E272E484E001
S1130E700E94A20340E050E060EF72E485E00E942B
S1130E80A20340E050E062E073E486E00E94A20323
S1130E906AEF70E080E090E00E94960D40E050E040
S1130EA060E272E484E00E94A20340E050E060E269
S1130EB072E485E00E94A20340E050E062E073E443
S1130EC086E00E94A2036AEF70E080E090E00E9456
S1130ED0960D40E050E060E272E480E00E94A203DC
S1130EE040E050E060E272E481E00E94A20340E04E
S1130EF050E064EB72E482E00E94A20340E050E020
S1130F0060E272E484E00E94A20340E050E060E208
S1130F1072E485E00E94A20340E050E064EB72E4D6
S1130F2086E00E94A20340E050E060E272E488E0C0
S1130F300E94A20340E050E060E272E489E00E9473
S1130F40A20340E050E062E073E48AE00E94A2035E
S1130F5040E050E060E272E48CE00E94A20340E0D2
S1130F6050E060E272E48DE00E94A20340E050E0B1
S1130F7060EF72E48EE00E94A2036AEF70E080E00A
S1130F8090E00E94960D40E050E060E272E48CE054
S1130F900E94A20340E050E060EF72E48DE00E9402
S1130FA0A20340E050E060E272E48EE00E94A203FB
S1130FB06AEF70E080E090E00E94960D40E050E01F
S1130FC060E272E48CE00E94A20340E050E060E240
S1130FD072E48DE00E94A20340E050E060E272E41B
S1130FE08EE00E94A2036AEF70E080E090E00E942D
S1130FF0960D10920001089540E050E060E272E422
S113100088E00E94A20340E050E060EF72E489E0CF
S11310100E94A20340E050E060E272E48AE00E9491
S1131020A2036AEF70E080E090E00E94960D40E039
S113103050E060E272E488E00E94A20340E050E0E5
S113104060E272E489E00E94A20340E050E060E2C2
S113105072E48AE00E94A2036AEF70E080E090E00C
S11310600E94960D40E050E068E472E480E00E9443
S1131070A20340E050E060E272E481E00E94A20337
S113108040E050E060E272E482E00E94A20340E0AB
S113109050E060E272E484E00E94A20340E050E089
S11310A060E272E485E00E94A20340E050E060E266
S11310B072E486E00E94A20340E050E060E272E441
S11310C088E00E94A20340E050E060E272E489E01C
S11310D00E94A20340E050E064EB72E48AE00E94C4
S11310E0A20340E050E060E272E48CE00E94A203BC
S11310F040E050E060E272E48DE00E94A20340E030
S113110050E064EB72E48EE00E94A2036AEF70E0A8
S113111080E090E00E94960D40E050E060E272E4CE
S113112080E00E94A20340E050E060EF72E481E0BE
S11311300E94A20340E050E062E073E482E00E9477
S1131140A2036AEF70E080E090E00E94960D40E018
S113115050E060E272E480E00E94A20340E050E0CC
S113116060E272E481E00E94A20340E050E062E0A9
S113117073E482E00E94A2036AEF70E080E090E0F2
S11311800E94960D81E080930001089580910001F2
S1131190882309F4C3C040E050E060E272E484E0D4
S11311A00E94A20340E050E060EF72E485E00E94F8
S11311B0A20340E050E062E073E486E00E94A203F0
S11311C06AEF70E080E090E00E94960D40E050E00D
S11311D060E272E484E00E94A20340E050E060E236
S11311E072E485E00E94A20340E050E062E073E410
S11311F086E00E94A2036AEF70E080E090E00E9423
S1131200960D40E050E060E272E488E00E94A203A0
S113121040E050E060EF72E489E00E94A20340E005
S113122050E06AE273E48AE00E94A2036AEF70E08D
S113123080E090E00E94960D40E050E060E272E4AD
S113124088E00E94A20340E050E060E272E489E09A
S11312500E94A20340E050E06AE273E48AE00E9444
S1131260A2036AEF70E080E090E00E94960D40E0F7
S113127050E060E272E480E00E94A20340E050E0AB
S113128060E272E481E00E94A20340E050E064EB7B
S113129072E482E00E94A20340E050E060E272E463
S11312A084E00E94A20340E050E060E272E485E042
S11312B00E94A20340E050E064EB72E486E00E94E6
S11312C0A20340E050E060E272E488E00E94A203DE
S11312D040E050E060E272E489E00E94A20340E052
S11312E050E062E073E48AE00E94A20340E050E030
S11312F060E272E48CE00E94A20340E050E060E20D
S113130072E48DE00E94A20340E050E060E272E4E7
S11313108EE00E94A20310920001C3C040E050E09E
S113132060EF71E48CE00E94A20340E050E060EFC3
S113133072E48DE00E94A20340E050E062E073E4B6
S11313408EE00E94A2036AEF70E080E090E00E94C9
S1131350960D40E050E060EF71E48CE00E94A2033F
S113136040E050E060E272E48DE00E94A20340E0BD
S113137050E062E073E48EE00E94A2036AEF70E042
S113138080E090E00E94960D40E050E060E272E45C
S113139080E00E94A20340E050E060EF72E481E04C
S11313A00E94A20340E050E06AE273E482E00E94FB
S11313B0A2036AEF70E080E090E00E94960D40E0A6
S11313C050E060E272E480E00E94A20340E050E05A
S11313D060E272E481E00E94A20340E050E06AE22D
S11313E073E482E00E94A2036AEF70E080E090E080
S11313F00E94960D40E050E060E272E480E00E94BA
S1131400A20340E050E060E272E481E00E94A203A3
S113141040E050E062E073E482E00E94A20340E016
S113142050E060E272E484E00E94A20340E050E0F5
S113143060E272E485E00E94A20340E050E060E2D2
S113144072E486E00E94A20340E050E060E272E4AD
S113145088E00E94A20340E050E060E272E489E088
S11314600E94A20340E050E064EB72E48AE00E9430
S1131470A20340E050E060E272E48CE00E94A20328
S113148040E050E060E272E48DE00E94A20340E09C
S113149050E064EB72E48EE00E94A20381E080934A
S11314A000016AEF70E080E090E00E94960D80E019
S11314B0089580910001882309F4C9C040E050E0F8
S11314C060E272E480E00E94A20340E050E060EF3A
S11314D072E481E00E94A20340E050E060E272E422
S11314E082E00E94A2036AEF70E080E090E00E9434
S11314F0960D40E050E060E272E480E00E94A203B6
S113150040E050E060E272E481E00E94A20340E027
S113151050E060E272E482E00E94A2036AEF70E0AD
S113152080E090E00E94960D40E050E060E272E4BA
S11315308CE00E94A20340E050E060EF72E48DE092
S11315400E94A20340E050E060E271E48EE00E9459
S1131550A2036AEF70E080E090E00E94960D40E004
S113156050E060E272E48CE00E94A20340E050E0AC
S113157060E272E48DE00E94A20340E050E060E289
S113158071E48EE00E94A2036AEF70E080E090E0D4
S11315900E94960D40E050E060E272E480E00E9418
S11315A0A20340E050E060E272E481E00E94A20302
S11315B040E050E064EB72E482E00E94A20340E069
S11315C050E060E272E484E00E94A20340E050E054
S11315D060E272E485E00E94A20340E050E064EB24
S11315E072E486E00E94A20340E050E060E272E40C
S11315F088E00E94A20340E050E060E272E489E0E7
S11316000E94A20340E050E060EF72E48AE00E948E
S1131610A20340E050E060E272E48CE00E94A20386
S113162040E050E060E272E48DE00E94A20340E0FA
S113163050E060E272E48EE00E94A2036AEF70E080
S113164080E090E00E94960D10920001089540E021
S113165050E060E272E488E00E94A20340E050E0BF
S113166060EF72E489E00E94A20340E050E060E28F
S113167072E48AE00E94A2036AEF70E080E090E0E6
S11316800E94960D40E050E060E272E488E00E941F
S1131690A20340E050E060E272E489E00E94A20309
S11316A040E050E060E272E48AE00E94A2036AEF44
S11316B070E080E090E00E94960D40E050E060E22F
S11316C072E484E00E94A20340E050E060EF72E420
S11316D085E00E94A20340E050E060EA71E486E005
S11316E00E94A2036AEF70E080E090E00E94960DF1
S11316F040E050E060E272E484E00E94A20340E033
S113170050E060E272E485E00E94A20340E050E011
S113171060EA71E486E00E94A2036AEF70E080E070
S113172090E00E94960D40E050E060E272E480E0B8
S11317300E94A20340E050E060E272E481E00E9473
S1131740A20340E050E062E073E482E00E94A2035E
S113175040E050E060E272E484E00E94A20340E0D2
S113176050E060E272E485E00E94A20340E050E0B1
S113177060E272E486E00E94A20340E050E060E28E
S113178072E488E00E94A20340E050E060E272E468
S113179089E00E94A20340E050E064EB72E48AE036
S11317A00E94A20340E050E060E272E48CE00E94F8
S11317B0A20340E050E060E272E48DE00E94A203E4
S11317C040E050E064EB72E48EE00E94A2036AEF12
S11317D070E080E090E00E94960D81E0809300012B
S11317E00895CF93DF9380910001882309F4EEC01C
S11317F040E050E060EA71E480E00E94A20340E02F
S113180050E066E173E481E00E94A20340E050E00E
S113181060E272E482E00E94A2036CE271E080E084
S113182090E00E94960DC2E0D0E040E050E060EA13
S113183071E480E00E94A20340E050E066E173E4BA
S113184081E00E94A20340E050E060E272E482E0A2
S11318500E94A20368EC70E080E090E00E94960D84
S113186040E050E064EB72E480E00E94A20340E0B8
S113187050E066E173E481E00E94A20340E050E09E
S113188060E272E482E00E94A2036AEF70E080E00A
S113189090E00E94960D40E050E064EB72E480E03A
S11318A00E94A20340E050E060EF72E481E00E94F5
S11318B0A20340E050E060E272E482E00E94A203EE
S11318C068EC70E080E090E00E94960D40E050E00B
S11318D060EA71E480E00E94A20340E050E060EF1F
S11318E072E481E00E94A20340E050E060E272E40E
S11318F082E00E94A2036AEF70E080E090E00E9420
S1131900960D2197209709F090CF6CE271E080E06A
S113191090E00E94960D40E050E060E272E480E0C6
S11319200E94A20340E050E060E272E481E00E9481
S1131930A20340E050E062E073E482E00E94A2036C
S113194040E050E060E272E484E00E94A20340E0E0
S113195050E060E272E485E00E94A20340E050E0BF
S113196060E272E486E00E94A20340E050E060E29C
S113197072E488E00E94A20340E050E060E272E476
S113198089E00E94A20340E050E064EB72E48AE044
S11319900E94A20340E050E060E272E48CE00E9406
S11319A0A20340E050E060E272E48DE00E94A203F2
S11319B040E050E064EB72E48EE00E94A2036AEF20
S11319C070E080E090E00E94960D8FC0C2E0D0E00D
S11319D040E050E064EB72E48CE00E94A20340E03B
S11319E050E066E173E48DE00E94A20340E050E021
S11319F060EF72E48EE00E94A20364EF71E080E085
S1131A0090E00E94960D40E050E060EA71E48CE0C2
S1131A100E94A20340E050E060EF72E48DE00E9477
S1131A20A20340E050E060EF72E48EE00E94A20363
S1131A3064EF71E080E090E00E94960D219720977A
S1131A4039F640E050E060E272E480E00E94A203D4
S1131A5040E050E060E272E481E00E94A20340E0D2
S1131A6050E064EB72E482E00E94A20340E050E0A4
S1131A7060E272E484E00E94A20340E050E060E28D
S1131A8072E485E00E94A20340E050E064EB72E45B
S1131A9086E00E94A20340E050E060E272E488E045
S1131AA00E94A20340E050E060E272E489E00E94F8
S1131AB0A20340E050E062E073E48AE00E94A203E3
S1131AC040E050E060E272E48CE00E94A20340E057
S1131AD050E060E272E48DE00E94A20340E050E036
S1131AE060E272E48EE00E94A203DF91CF91089538
S1131AF00F931F9310923401109235011092360106
S1131B0010923701109285001092840000913401E4
S1131B1010913501209136013091370106171707CE
S1131B202807390798F31F910F910895CF92DF92F8
S1131B30EF92FF92CF93DF936B017C0161157105E6
S1131B408105910599F0C0E0D0E064E670E080E0A2
S1131B5090E00E94780D2196CE01AA2797FDA095CA
S1131B60BA2F8C159D05AE05BF0578F3DF91CF9193
S1131B70FF90EF90DF90CF9008951092800089E05D
S1131B80809381001092890080EA8093880082E02B
S1131B9080936F0008951F920F920FB60F92112435
S1131BA08F939F93AF93BF938091340190913501AC
S1131BB0A0913601B09137010196A11DB11D80930A
S1131BC0340190933501A0933601B0933701BF914E
S1131BD0AF919F918F910F900FBE0F901F9018950A
S1131BE01092C50089E18093C400E1ECF0E08EE03E
S1131BF0808388E180830895E0ECF0E0908195FF94
S1131C00FDCF8093C60008950F931F93CF93DF9366
S1131C10CDB7DEB7DA950FB6F894DEBF0FBECDBFF1
S1131C20FE01E95FFE4F61917191CE01019620E0C2
S1131C3031E0DC01A9011D9241505040E1F7AF01B0
S1131C400E948B188981882399F08E010E5F1F4FA3
S1131C508A3039F48DE00E94FC0D8AE00E94FC0D6C
S1131C6002C00E94FC0DD8018D918D018111F0CF2D
S1131C7064E070E080E090E00E94960DD3950FB68A
S1131C80F894DEBF0FBECDBFDF91CF911F910F91AE
S1131C9008951CBC80E78CBD8CB58F608CBD8CE234
S1131CA084B92C9A08958EBD0DB407FEFDCF62E071
S1131CB070E080E090E00E94780D8EB50895CF9298
S1131CC0DF92EF92FF920F931F93CF93DF932A98A3
S1131CD081E00E94530E82E40E94530E80E00E9431
S1131CE0530EC0E0D0E080E00E94530EFE01E25D9E
S1131CF0FE4F808362E070E080E090E00E94780D07
S1131D002196C630D10579F7C5E0D1E00F2EF7E171
S1131D10EF2EF1E0FF2EF02D01E011E0D880C98014
S1131D2022968D2D0E94530ECF92DF921F930F9314
S1131D300E94040E62E070E080E090E00E94780D62
S1131D400F900F900F900F90CE15DF0539F72A9A58
S1131D5062E070E080E090E00E94780D80E090E026
S1131D60DF91CF911F910F91FF90EF90DF90CF9073
S1131D7008950E945F0E80912E01089580912F0195
S1131D800895CF93DF93C82FD62F80912E011F92F1
S1131D908F931F92CF9327E131E03F932F930E94BB
S1131DA0040E0F900F900F900F900F900F90CF3E56
S1131DB019F40E94960513C0CF3719F40E94C6087F
S1131DC00EC0CF3D19F40E94590A09C0CF3B19F443
S1131DD00E942E0704C0DF3D11F40E94F10B64E65B
S1131DE070E080E090E00E94960DDF91CF9108951D
S1131DF0AF92BF92CF92DF92EF92FF920F931F9315
S1131E00CF93DF930F2EF5E0AF2EF02DB12CCEE261
S1131E10D1E00FE111E078C00E945F0E888191E06B
S1131E20E91AF108E114F104B9F7873F09F46FC026
S1131E300E94B7016B017C01809129018F938091ED
S1131E4028018F93809127018F93809126018F938E
S1131E5080912D018F9380912C018F9380912B0180
S1131E608F9380912A018F931F930F930E94040EE6
S1131E708DB79EB70A960FB6F8949EBF0FBE8DBF5E
S1131E8020E030E048EC51E460912A0170912B018C
S1131E9080912C0190912D010E945910181684F400
S1131EA020E030E048EC51E4609126017091270174
S1131EB080912801909129010E9459101816E4F08C
S1131EC020E030E044EB52E4C701B6010E94C8119F
S1131ED018164CF40E94C6080E94C6080E94C60840
S1131EE00E94C6080BC00E94590A0E94590A0E9407
S1131EF0590A0E94590A02C00E94960564E670E0DD
S1131F0080E090E00E94960DEA2CFB2C85CFDF91B7
S1131F10CF911F910F91FF90EF90DF90CF90BF90E2
S1131F20AF9008955058BB27AA270ED0F7C1E8D127
S1131F3030F0EDD120F031F49F3F11F41EF4B8C11C
S1131F400EF4E095E7FBAEC1E92FF9D180F3BA179F
S1131F50620773078407950718F071F49EF511C2A0
S1131F600EF4E0950B2EBA2FA02D0B01B9019001B0
S1131F700C01CA01A0011124FF27591B99F0593FF4
S1131F8050F4503E68F11A16F040A22F232F342F3C
S1131F904427585FF3CF469537952795A795F0408A
S1131FA05395C9F77EF41F16BA0B620B730B840B9F
S1131FB0BAF09150A1F0FF0FBB1F661F771F881F57
S1131FC0C2F70EC0BA0F621F731F841F48F48795AF
S1131FD077956795B795F7959E3F08F0B3CF93959E
S1131FE0880F08F09927EE0F97958795089588D163
S1131FF058F080E891E009F49EEF89D128F040E898
S113200051E059F45EEF09C053C1BBC1E92FE07838
S113201096D168F3092E052AC1F326173707480716
S1132020590738F00E2E07F8E02569F0E025E06442
S11320300AC0EF6307F8009407FADB01B9019D01B8
S1132040DC01CA01AD01EF9347D068D10AD05F919A
S1132050552331F02BED3FE049E450FD49EC63CFCB
S11320600895DF93DD27B92FBF7740E85FE31616A5
S1132070170648075B0710F4D92F8ED19F938F93CF
S11320807F936F933FD2E0E8F0E015D147D12F91D1
S11320903F914F915F9193D1DD2349F09058A2EA8B
S11320A02AED3FE049EC5FE3D0785D274DDFDF9117
S11320B035C1D4D008F481E008950CD02FC127D1C4
S11320C040F01ED130F021F45F3F19F0EBC0511104
S11320D059C1EEC034D198F39923C9F35523B1F310
S11320E0951B550BBB27AA2762177307840738F083
S11320F09F5F5F4F220F331F441FAA1FA9F333D0E2
S11321000E2E3AF0E0E830D091505040E695001C95
S1132110CAF729D0FE2F27D0660F771F881FBB1F51
S1132120261737074807AB07B0E809F0BB0B802D2B
S1132130BF01FF2793585F4F2AF09E3F510568F077
S1132140B1C020C15F3FECF3983EDCF386957795F0
S11321506795B795F7959F5FC9F7880F911D969579
S1132160879597F90895E1E0660F771F881FBB1FD5
S1132170621773078407BA0720F0621B730B840B82
S1132180BA0BEE1F88F7E0950895E1D088F09F57C9
S113219090F0B92F9927B751A0F0D1F0660F771FAF
S11321A0881F991F1AF0BA95C9F712C0B13081F08F
S11321B0E8D0B1E00895E5C0672F782F8827B85F8D
S11321C039F0B93FCCF3869577956795B395D9F7F0
S11321D03EF490958095709561957F4F8F4F9F4FFA
S11321E00895E89409C097FB3EF490958095709506
S11321F061957F4F8F4F9F4F9923A9F0F92F96E94F
S1132200BB279395F695879577956795B795F111C3
S1132210F8CFFAF4BB0F11F460FF1BC06F5F7F4F60
S11322208F4F9F4F16C0882311F096E911C0772372
S113223021F09EE8872F762F05C0662371F096E87B
S1132240862F70E060E02AF09A95660F771F881F4A
S1132250DAF7880F9695879597F90895990F0008EE
S1132260550FAA0BE0E8FEEF16161706E807F90764
S1132270C0F012161306E407F50798F0621B730BFF
S1132280840B950B39F40A2661F0232B242B252B80
S113229021F408950A2609F4A140A6958FEF811D23
S11322A0811D089597F99F6780E870E060E00895C4
S11322B09FEF80EC0895DF93CF931F930F93FF92CA
S11322C0EF92DF927B018C01689405C0DA2EEF0156
S11322D076D0FE01E894A5912591359145915591CB
S11322E0AEF3EF0131DEFE019701A801DA9479F72C
S11322F0DF90EF90FF900F911F91CF91DF910895A0
S113230000240A94161617061806090608950024D0
S11323100A9412161306140605060895092E03944A
S1132320000C11F4882352F0BB0F40F4BF2B11F4BE
S113233060FF04C06F5F7F4F8F4F9F4F089557FD1D
S11323409058440F551F59F05F3F71F04795880F1F
S113235097FB991F61F09F3F79F0879508951216B6
S113236013061406551FF2CF4695F1DF08C0161662
S113237017061806991FF1CF869571056105089413
S11323800895E894BB2766277727CB0197F908952A
S113239065DF08F48FEF08959B01AC0160E070E005
S11323A080E89FE38ACE0BD0B9CFAADF28F0AFDF55
S11323B018F0952309F076CF7BCF1124E3CFBFDF4C
S11323C0A0F3959FD1F3950F50E0551F629FF00144
S11323D0729FBB27F00DB11D639FAA27F00DB11D9D
S11323E0AA1F649F6627B00DA11D661F829F222726
S11323F0B00DA11D621F739FB00DA11D621F839FAD
S1132400A00D611D221F749F3327A00D611D231F82
S1132410849F600D211D822F762F6A2F11249F57D0
S113242050408AF0E1F088234AF0EE0FFF1FBB1FF3
S1132430661F771F881F91505040A9F79E3F510592
S113244070F030CF9FCF5F3FECF3983EDCF386957E
S113245077956795B795F795E7959F5FC1F7FE2B3D
S1132460880F911D9695879597F90895FA01EE0FB7
S1132470FF1F30962105310599F16115710561F44D
S11324808038BFE39B0749F168949038810561F077
S11324908038BFEF9B0741F0992342F5FF3FE105E8
S11324A03105210511F1E8940894E795D901AA238F
S11324B029F4AB2FBE2FF85FD0F310C0FF5F70F488
S11324C0A695E0F7F73950F019F0FF3A38F49F7702
S11324D09F930CD00F9007FC905808953EF0E8CEDF
S11324E060E070E080E89FE308954FE79F775F9393
S11324F04F933F932F9375D02F913F914F915F91BD
S113250052DF08C09B01AC014ECF19F40EF0CACEC5
S113251038CFCECE1CDFC8F39638C0F707F80F9239
S1132520E8942BE33AEA48EB5FE74BDF0F920F9214
S11325300F924DB75EB70F9294D0EDEAF0E0BBDE98
S11325404F915F91EF91FF91E595EE1FFF1F49F0C9
S1132550FE57E0684427EE0F441FFA95E1F74195D2
S1132560550B06D00F9007FE17CF08959BCEACC035
S1132570EEDEE8F39923D9F3940F511DBBF3915088
S1132580504094F059F0882332F0660F771F881F6B
S113259091505040C1F79E3F510544F7880F911D5B
S11325A09695879597F908955F3FACF0983E9CF017
S11325B0BB27869577956795B79508F4B160939591
S11325C0C1F7BB0F58F711F460FFE8CF6F5F7F4F7F
S11325D08F4F9F4FE3CFD6CE0EF076C069CE68946E
S11325E061CEB5DEC8F39923D1F3C6F3DF93CF935D
S11325F01F930F93FF92C92FDD2788232AF0219779
S1132600660F771F881FDAF720E030E040E85FEBC1
S11326109FE3883920F0803E30F021968F7783DC69
S1132620E5EDF0E003C07FDCE2E0F1E044DE8B01A5
S1132630BE01EC01FB2E6F5771097595771F880B4E
S1132640990BD1DD28E132E741E35FE3B8DEAF2D3A
S11326509801AE01FF900F911F91CF91DF9174DC2F
S11326605DCEFA01DC01AA0FBB1F9B01AC01BF5771
S113267028F422273327442750781FC0B75188F401
S1132680AB2F0024469537952795011CA395D2F3CB
S1132690002069F0220F331F441FB395DAF30DD0E5
S11326A041CC61307105A0E88A07B94630F49B013A
S11326B0AC016627772788279078309621F020830D
S11326C031834283538308959F3F31F0915020F426
S11326D0879577956795B795880F911D96958795FA
S11326E097F90895A3E1B0E0E8E7F3E10C94121739
S11326F07C011B016A01FC0117821682838181FF20
S113270066C3BE016F5F7F4F4B01F7019381F101F7
S113271093FD859193FF81911F01882309F453C38D
S1132720853239F493FD859193FF81911F018532A0
S113273039F4B70190E00E94591856016501E5CFBC
S113274010E0512C20E02032A0F48B3269F030F4F8
S1132750803259F0833269F420612CC08D3239F013
S1132760803339F4216026C02260246023C02860AD
S113277021C027FD27C030ED380F3A3078F426FF0A
S113278006C0FAE01F9F300D1124132F13C06AE016
S1132790569E300D1124532E20620CC08E3221F42B
S11327A026FD11C3206406C08C3611F4206802C0D3
S11327B0883641F4F10193FD859193FF81911F01C6
S11327C08111C1CF9BEB980F933018F42061805E88
S11327D006C09BE9980F933008F0AAC12F7E26FF0C
S11327E016E02F73722E853621F4F22FF0647F2EBB
S11327F008C0863621F4622F6068762E02C011115B
S1132800115077FE07C01C3348F444244394410E0E
S113281027E00BC0183030F4212F06C027E04CE32A
S1132820442E03C027E017E0412C560174E0A70EA4
S1132830B11CF6016081718182819381042DA40110
S11328400E946B176C01098100FF02C003FF06C0E0
S113285071FC07C072FC08C0612C08C03DE2632E05
S113286005C02BE2622E02C090E2692E802F8C708C
S113287099F1662011F084E001C083E0851510F021
S1132880512C0BC0581A73FC08C0B70180E290E0C9
S11328900E9459185A94C9F7F3CF662029F0B7015A
S11328A0862D90E00E94591803FD03C004E311E053
S11328B002C000E311E0F72DF0717F2EF80184913E
S11328C0882309F476C271108052B70190E00E9407
S11328D059180F5F1F4FF2CF77FE0FC04C0C04FF47
S11328E004C08A81813309F44A94141474F5F8E01D
S11328F0F41578F588E0482E2CC076FC2AC0812F88
S113290090E08C159D059CF06CEFC6166FEFD60613
S113291074F0772D7068772E0AC0E2E0F0E0EC0FD7
S1132920FD1FE10FF11D8081803319F41150111145
S1132930F4CF77FE0EC044244394410E812F90E0DF
S1132940C816D9062CF41C1904C04424439401C0AD
S113295010E077FE07C01C141D043CF496012F5FA1
S11329603F4F05C025E030E002C021E030E06620A2
S113297011F02F5F3F4F112331F0412F50E04F5F93
S11329805F4F240F351F452D50E02417350714F4ED
S1132990521A01C0512C872D897049F4552039F001
S11329A0B70180E290E00E9459185A94F7CF66204C
S11329B029F0B701862D90E00E94591873FC09C0D4
S11329C0552039F0B70180E390E00E9459185A94D9
S11329D0F7CF77FE5FC09C2D8D2DD7FE02C090E00F
S11329E080E0692E782E40E050E0C60184199109F8
S11329F09D878C87960126193709280D391D812F4B
S1132A0090E0EE27FF27E81BF90BFF87EE87FFEF27
S1132A106F167F0669F4B7018EE290E02B8B3A8B38
S1132A20488B598B0E945918598948893A892B89AE
S1132A30C614D70454F06C857D85661577052CF48F
S1132A40F901E40FF51F818101C080E371E0671A89
S1132A5071084F5F5F4FEE85FF856E167F066CF041
S1132A60B70190E02B8B3A8B488B598B0E945918F5
S1132A702B893A8948895989CACF6C147D0439F461
S1132A809A81963318F4953311F404FF81E3B70166
S1132A9090E04BC08A81813309F00F7EB70190E04A
S1132AA00E945918111105C074FE18C085E490E005
S1132AB017C0B7018EE290E00E94591882E06624A4
S1132AC06394680EF401E80FF11D8081B70190E072
S1132AD00E945918115041F3862DF1CF85E690E0FC
S1132AE0B7010E945918D7FC05C0C114D10439F4A8
S1132AF004FF05C0D194C194D1088DE201C08BE2DA
S1132B00B70190E00E94591880E36AE0C616D10428
S1132B102CF08F5FFAE0CF1AD108F7CFB70190E01D
S1132B200E945918B701C601C0960E94591841C1A4
S1132B30833631F0833779F0833509F058C021C0EA
S1132B40560172E0A70EB11CF6018081898301E071
S1132B5010E0640114C05601F2E0AF0EB11CF6019E
S1132B60C080D18026FF03C0612F70E002C06FEFE8
S1132B707FEFC6012B8B0E944E188C012B892F7777
S1132B8015C05601F2E0AF0EB11CF601C080D18031
S1132B9026FF03C0612F70E002C06FEF7FEFC60114
S1132BA02B8B0E9443188C012B892068722E23FDE5
S1132BB01AC0852D90E008171907A8F4B70180E220
S1132BC090E00E9459185A94F4CFF60177FC85914D
S1132BD077FE81916F01B70190E00E94591851105E
S1132BE05A94015011090115110579F7E2C0843690
S1132BF011F0893651F5560127FF09C0F4E0AF0EF4
S1132C00B11CF60160817181828193810AC0F2E076
S1132C10AF0EB11CF60160817181882777FD809524
S1132C20982F022F0F7697FF08C090958095709586
S1132C3061957F4F8F4F9F4F00682AE030E0A401D9
S1132C400E94A718C82EC8183EC0022F853721F449
S1132C500F7E2AE030E01DC0097F8F3691F018F412
S1132C60883559F0B0C0803719F0883711F0ABC0FF
S1132C70006104FF09C0046007C024FF08C00660A7
S1132C8006C028E030E005C020E130E002C020E1C9
S1132C9032E0560107FF09C0F4E0AF0EB11CF601A3
S1132CA0608171818281938108C0F2E0AF0EB11C12
S1132CB0F6016081718180E090E0A4010E94A71870
S1132CC0C82EC8180F7706FF0BC0202F2E7FC11601
S1132CD050F404FF0AC002FD08C0202F2E7E05C058
S1132CE0DC2C202F03C0DC2C01C0D12E24FF0DC00E
S1132CF0FE01EC0DF11D8081803311F4297E09C0A1
S1132D0022FF06C0D394D39404C0822F867809F09E
S1132D10D39423FD13C020FF06C01C2DD51418F432
S1132D20150D1D19D52CD51468F4B70180E290E077
S1132D302B8B0E945918D3942B89F5CFD51410F4FA
S1132D405D1801C0512C24FF12C0B70180E390E04C
S1132D502B8B0E9459182B8922FF17C021FF03C017
S1132D6088E590E002C088E790E0B7010CC0822FAC
S1132D70867859F021FD02C080E201C08BE227FD74
S1132D808DE2B70190E00E945918C11638F4B701DA
S1132D9080E390E00E9459181150F7CFCA94F401CF
S1132DA0EC0DF11D8081B70190E00E945918C1100B
S1132DB0F5CF552009F4C2CCB70180E290E00E941F
S1132DC059185A94F6CFF7018681978102C08FEF84
S1132DD09FEF6396E2E10C942E17052E97FB1EF4E9
S1132DE000940E94041757FD07D00E94491707FC5E
S1132DF003D04EF40C9404175095409530952195CA
S1132E003F4F4F4F5F4F0895909580957095619512
S1132E107F4F8F4F9F4F0895EE0FFF1F0590F49142
S1132E20E02D09942F923F924F925F926F927F927E
S1132E308F929F92AF92BF92CF92DF92EF92FF92C6
S1132E400F931F93CF93DF93CDB7DEB7CA1BDB0B72
S1132E500FB6F894DEBF0FBECDBF09942A88398817
S1132E6048885F846E847D848C849B84AA84B9841E
S1132E70C884DF80EE80FD800C811B81AA81B9812A
S1132E80CE0FD11D0FB6F894DEBF0FBECDBFED013E
S1132E900895A1E21A2EAA1BBB1BFD010DC0AA1F97
S1132EA0BB1FEE1FFF1FA217B307E407F50720F0AF
S1132EB0A21BB30BE40BF50B661F771F881F991F2A
S1132EC01A9469F760957095809590959B01AC0173
S1132ED0BD01CF010895283008F027E03327DA0137
S1132EE0990F311D87FD916000966105710539F4D4
S1132EF032602E5F3D9330E32A95E1F708959F3FBA
S1132F0030F080387105610509F03C5F3C5F3D930A
S1132F10913008F08068911DDF93CF931F930F9336
S1132F20FF92EF92192F987F9695E92F9695969593
S1132F30E90FFF27EE56FE4F99273327EE24FF248F
S1132F40A701E70105900894079428F4360FE71EBB
S1132F50F81E491F511D660F771F881F991F06947D
S1132F60A1F70590079428F4E70EF81E491F561F91
S1132F70C11D770F881F991F661F0694A1F705903E
S1132F80079428F4F80E491F561FC71FD11D880F38
S1132F90991F661F771F0694A1F70590079420F4E4
S1132FA0490F561FC71FD81F990F661F771F881F09
S1132FB00694A9F784911095177041F0D695C7959A
S1132FC057954795F794E7941A95C1F7E8E3F1E02C
S1132FD068941590159135916591959105907FE2CE
S1132FE07395E118F10A430B560BC90BD009C0F7CE
S1132FF0E10CF11E431F561FC91FD01D7EF4703310
S113300011F48A95E6CFE894015030F0080F0AF4E1
S11330100027021708F4202F2395022F7A3328F073
S113302079E37D932A95E9F710C07D932A9589F673
S1133030069497956795379517951794E118F10AB3
S1133040430B560BC90BD00998F023957E917395C9
S11330507A3308F070E37C932013B8F77E917061A3
S11330607D9330F0839571E37D9370E32A95E1F7C6
S11330701124EF90FF900F911F91CF91DF91992729
S113308087FD90950895FC010590615070400110F2
S1133090D8F7809590958E0F9F1F0895FC0161507D
S11330A0704001900110D8F7809590958E0F9F1F66
S11330B008950F931F93CF93DF93182F092FEB01DC
S11330C08B8181FD03C08FEF9FEF20C082FF10C072
S11330D04E815F812C813D81421753077CF4E88146
S11330E0F9819F012F5F3F4F39832883108306C0E6
S11330F0E885F985812F0995892B29F72E813F8150
S11331002F5F3F4F3F832E83812F902FDF91CF91ED
S11331101F910F910895AEE0B0E0E1E9F8E10C945D
S113312020178C0186E08C831A8309838FEF9FE735
S11331309E838D83CE0101960E947213EF81F885E0
S1133140E00FF11F10822E96E4E00C943C17FA0174
S1133150AA27283051F1203181F1E8946F936E7FD2
S11331606E5F7F4F8F4F9F4FAF4FB1E03ED0B4E0C3
S11331703CD0670F781F891F9A1FA11D680F791F04
S11331808A1F911DA11D6A0F711D811D911DA11D15
S113319020D009F468943F912AE0269F1124301925
S11331A0305D3193DEF6CF010895462F4770405DC0
S11331B04193B3E00FD0C9F7F6CF462F4F70405D6F
S11331C04A3318F0495D31FD4052419302D0A9F7CA
S11331D0EACFB4E0A6959795879577956795BA95C4
S11331E0C9F700976105710508959B01AC010A2E8A
S11331F006945795479537952795BA95C9F7620F61
S1113200731F841F951FA01D0895F894FFCF1F
S113320E0125642C000100430000000100000000B1
S113321E0000000000000025642C25642C0A002503
S109322E662E25660A006D
S9030000FC
