:100000000C9434000C9451000C9451000C94510049
:100010000C9451000C9451000C9451000C9451001C
:100020000C9451000C9451000C9451000C946E00EF
:100030000C9451000C9451000C9451000C945100FC
:100040000C9451000C9451000C9451000C945100EC
:100050000C9451000C9451000C9451000C945100DC
:100060000C9451000C94510011241FBECFEFD8E026
:10007000DEBFCDBF11E0A0E0B1E0E6E5F1E002C0F7
:1000800005900D92A030B107D9F721E0A0E0B1E0D2
:1000900001C01D92A430B207E1F70E945B000C94EE
:1000A000A9000C9400000E9460000E9493000E942E
:1000B0009F00789408950E94530080E090E0089596
:1000C0001092800089E0809381001092890080EA7C
:1000D0008093880082E080936F0008951F920F92B2
:1000E0000FB60F9211248F939F93AF93BF9380917C
:1000F000000190910101A0910201B09103010196CC
:10010000A11DB11D8093000190930101A0930201F4
:10011000B0930301BF91AF919F918F910F900FBE4C
:100120000F901F9018951092C50089E18093C4002C
:10013000E1ECF0E08EE0808388E1808308951CBCD0
:1001400080E78CBD8CB58F608CBD8CE284B92C9A15
:060150000895F894FFCFB2
:00000001FF
